:020000040800F2
:10000000600B002015020008230800081B080008E8
:100010001F080008FF0600088F10000800000000FD
:100020000000000000000000000000002D09000892
:100030000307000800000000A90800082F090008B5
:100040002F0200082F0200082F0200082F020008CC
:100050002F0200082F0200082F0200082F020008BC
:100060002F0200082F0200082F0200082F020008AC
:100070002F0200082F0200082F0200082F0200089C
:100080002F0200082F0200082F0200082F0200088C
:100090002F0200082F0200082F0200082F0200087C
:1000A0002F0200082F0200082F0200082F0200086C
:1000B0002F0200082F020008910900082F020008F3
:1000C0002F0200082F0200082F0200082F0200084C
:1000D0002F0200082F0200082F0200082F0200083C
:1000E0002F0200082F0200082F02000800F002F87B
:1000F00000F066F80AA090E8000C82448344AAF15C
:100100000107DA4501D100F05BF8AFF2090EBAE859
:100110000F0013F0010F18BFFB1A43F0010318473B
:100120007C1C00009C1C000010F8013B0A4413F0EA
:10013000030408BF10F8014B1D1108BF10F8015B44
:10014000641E05D010F8016B641E01F8016BF9D133
:10015000002D15D010F8014B03F00C030C2BA1EB74
:1001600004040ABF10F8013BA4EB8314A4EB03249E
:1001700005F1010314F8016B5B1E01F8016BF9D561
:10018000914238BF10F8013BD1D3704700230024BF
:1001900000250026103A28BF78C1FBD8520728BF97
:1001A00030C148BF0B6070471FB59DE8030000F0E9
:1001B00023F900F064F800F091F81FBD10B510BDF0
:1001C00000F084F91146FFF7EFFF01F0EDF900F0C0
:1001D000BCF903B4FFF7F2FF03BC00F0F9F900002B
:1001E0000B49D1F800C04A685CF8043B1068184419
:1001F00042F8040B8C4528BFA1F1DC0C8A4228BFD1
:10020000A1F1DC02C1F800C04A6020F00040704754
:10021000F80400200948804709480047FEE7FEE748
:10022000FEE7FEE7FEE7FEE7FEE7FEE7FEE7FEE7A6
:1002300004480549054A064B70470000310900088B
:10024000ED00000860050020600B00206007002022
:10025000600700200B4910B5A1F17C020A4CC2E9ED
:100260003712372106E000EB104342F82130074BEC
:1002700000FB03400B1EA1F10101F4DC10BD0120C5
:10028000E8E7000098040020E119D666CD0D0100D2
:100290004FF000020429C0F0128010F0030C00F0AF
:1002A0006480CCF1040CBCF1020F18BF00F8012BE4
:1002B000A8BF20F8022BA1EB0C0100F056B85FEAB2
:1002C000C17C24BF00F8012B00F8012B48BF00F8C7
:1002D000012B7047704770477047000070B5064C9F
:1002E0007C44064D7D4403E0206820448047241D63
:1002F000AC42F9D170BD0000D81A0000D81A000035
:10030000004870473405002070B5064600F058F8E4
:10031000056806F10B0020F00704B4429CBF0020E2
:1003200070BD2B466A68BAB11068A04210D304F1C0
:10033000080188423CBF5068586007D351681019C3
:1003400041601168091B016058601460101D70BD88
:1003500013465268002AE7D12146284600F038F8B3
:100360000028DED170BD4FF0000200B51346944660
:100370009646203922BFA0E80C50A0E80C50B1F1FD
:100380002001BFF4F7AF090728BFA0E80C5048BF11
:100390000CC05DF804EB890028BF40F8042B08BFAF
:1003A000704748BF20F8022B11F0804F18BF00F8AB
:1003B000012B704700F07DB8004870470005002011
:1003C0000048704708050020704770477047704725
:1003D00038B504460A4600206946AFF3008000287D
:1003E00008BF38BD02460099204600F094F801206D
:1003F00038BD012000F0BDB8F8B5AFF30080054668
:1004000000200C46102000BF0646A819A0420DD9B6
:10041000324669460020AFF30080070008BF00F0B5
:10042000A8F80098A04218BF0546C419FFF7C8FFF6
:1004300005600746F01D20F007004619284600F029
:100440000AF8B44208BFF8BDA21B31463868BDE8BF
:10045000F84000F060B800210160C0E90110704769
:100460001020704770B50446051FFFF7A9FF00680C
:10047000002C14BF446870BD002C18BFAC423CBFB8
:1004800020466468F8D301680A18AA4218BF45607C
:1004900003D12A6805461144016028684119A14228
:1004A0001CBF6C6070BD6168696021680844286089
:1004B00070BD10B500F067F8016919B10022026142
:1004C000884701E08068804700F048F87546FFF7EC
:1004D00073FFAE4605006946534620F00700854687
:1004E00018B020B5FFF7A4FEBDE820404FF000068D
:1004F0004FF000074FF000084FF0000B21F007010C
:10050000AC46ACE8C009ACE8C009ACE8C009ACE84E
:10051000C0098D467047034640688C46002818BFC6
:1005200088423CBF03464068F8D3186818448842A4
:1005300007D00CF1030020F00700001D411A521AE9
:100540000146081D0A60FFF78DBF10B50446AFF3E2
:1005500000802046BDE81040FFF73BBE10B50020EC
:1005600000F047F8FFF72AFEBDE81040012000F038
:100570002FB810B500F044F8BDE8104000F034B8D2
:1005800010B5FFF7EBFF70B500F02AF804680546D8
:10059000A4B92020FFF7B8FE040011D009490020BB
:1005A0002C60C4E900010849A160207320616061EA
:1005B0000649A06109B100F04BF8E061204670BD2A
:1005C000FFF7CCFF000000008105000800000000DC
:1005D00001491820ABBEFEE726000200704700006C
:1005E000004870473C050020002801D0FFF7F0BF0D
:1005F000704710B500F064F8BDE81040FFF7F4BF95
:1006000010B5012805D0002103A000F03FF801201B
:1006100010BD09A1F8E7000053494752544D454D1C
:100620003A204F7574206F662068656170206D6593
:100630006D6F7279000000003A2048656170206D8E
:10064000656D6F727920636F727275707465640086
:1006500010B58820FFF758FE002801D00021017056
:1006600010BD802902D808B1017809B10020704777
:10067000012100F8081B704718B100F108029142EF
:1006800001D00020704700210170704770B5054609
:100690000C460A2000E06D1C00F02AF835B12878DD
:1006A0000028F8D102E0641C00F022F814B1207890
:1006B0000028F8D1BDE870400A2000F019B8000009
:1006C00010B5002102A0FFF7E1FF012010BD0000DE
:1006D000534947414252543A2041626E6F726D61F4
:1006E0006C207465726D696E6174696F6E000000D4
:1006F00008B569468DF800000320ABBE08BD00BFF9
:10070000FEE770472DE9F041024600250026002053
:1007100000230024002791F803C00CF00F0591F886
:1007200003C00CF0100CBCF1000F03D091F802C014
:100730004CEA050591F800C0BCF1000F31D01468F7
:1007400000202BE04FF0010C0CFA00F3B1F800C0D0
:100750000CEA03069E4220D183004FF00F0C0CFAE6
:1007600003F7BC4305FA03FC4CEA040491F803C008
:10077000BCF1280F06D14FF0010C0CFA00FCC2F8B6
:1007800014C00AE091F803C0BCF1480F05D14FF046
:10079000010C0CFA00FCC2F810C0401C0828D1D390
:1007A0001460B1F800C0BCF1FF0F34DD54680020C4
:1007B0002EE000F1080C4FF0010808FA0CF3B1F834
:1007C00000C00CEA03069E4221D183004FF00F0CBB
:1007D0000CFA03F7BC4305FA03FC4CEA040491F855
:1007E00003C0BCF1280F05D100F1080C08FA0CF881
:1007F000C2F8148091F803C0BCF1480F07D100F192
:10080000080C4FF0010808FA0CF8C2F81080401CE0
:100810000828CED35460BDE8F08100BFFEE700BFDA
:10082000FEE7704770B5002100230F22C47804B39F
:10083000154C246804F4E064C4F5E064210AC1F1B5
:100840000403CA40447804FA03F184781440214335
:1008500009010E4C0678A155047804F01F05012407
:10086000AC4005786D11AD0005F1E025C5F80041FB
:1008700009E0047804F01F050124AC40044D06781B
:10088000761145F8264070BD0CED00E000E400E074
:1008900080E100E002490143024A11607047000014
:1008A0000000FA050CED00E07047000029B1064A8F
:1008B000D2690243044BDA6104E0034AD2698243FD
:1008C000014BDA61704700000010024029B1064A6E
:1008D00012690243044B1A6104E0034A126982431D
:1008E000014B1A61704700000010024029B1064A0E
:1008F00092690243044B9A6104E0034A926982437D
:10090000014B9A61704700000010024029B1064A6D
:10091000D2680243044BDA6004E0034AD26882439F
:10092000014BDA60704700000010024070477047CA
:1009300010B51348006840F00100114908600846EE
:100940004068104908400E494860084600680E4952
:1009500008400B4908600846006820F480200860C1
:100960000846406820F4FE0048604FF41F0088608D
:1009700000F044FD4FF000600449086010BD000025
:10098000001002400000FFF8FFFFF6FE08ED00E057
:100990002DE9F04701216D4800F000FA01287DD1D2
:1009A0006B4800886B490978884205DA68480088F6
:1009B000401C6749088043E000206549088066487C
:1009C0000088401C6449088008460088642837DB9A
:1009D0000020088061480078022803D05F48007832
:1009E000032827D15E485F490A8802808978817090
:1009F0005D48007801F0F2F88146FFF7F1FB804690
:100A000001F0D4F807464FF09E4100F0F1FF064692
:100A1000494601F0F7F80446204601F0ABF885B2EC
:100A200005EB4500514908444E4902880A80807808
:100A3000887000BF49480078032801D100F066FCA7
:100A400046480078012804D0022803D0032874D136
:100A500059E000BF4649404A128851F822004549F2
:100A600001F0D0F8814600F097FF07460022424B84
:100A700000F0E6FD054600F0B1FD0446384908786F
:100A800001F0ACF88046214601F0BCF806463B4830
:100A90000168304601F0B6F8074600E04FE001F08B
:100AA00069F885B22946294800F090FA2C4948781F
:100AB00001F094F88046214601F0A4F8054630483C
:100AC0000168284601F09EF8064601F053F887B207
:100AD00039461E4800F07CFA2149887801F07EF8FA
:100AE0008046214601F08EF80746264801683846C0
:100AF00001F088F8064601F03DF885B22946134812
:100B000000F068FA1AE02048134A128830F81210F0
:100B10000E4800F05BFA1D480F4A128830F8121098
:100B20000A4800F055FA1A480B4A128830F8121099
:100B3000064800F04FFA01E0FFE700BF00BF0121C7
:100B4000024800F027F8BDE8F087000000080040E8
:100B5000A8010020AA010020A60100200C0000200E
:100B6000A0010020A30100200D000020AC01002006
:100B7000100000200000C84200007040000000206B
:100B80000400002008000020C20100208A0200208A
:100B900052030020CA430282704721B1028842F00A
:100BA0000102028004E002884FF6FE731A400280C0
:100BB0007047000010B504466848844208D10121FE
:100BC000C014FFF7A3FE0021E014FFF79FFEC4E06E
:100BD000B4F1804F08D101210846FFF777FE0021CC
:100BE0000120FFF773FEB8E05D48844208D101217F
:100BF0000220FFF76BFE00210220FFF767FEACE04A
:100C00005848844208D101210420FFF75FFE0021EB
:100C10000420FFF75BFEA0E05348844208D1012185
:100C20000820FFF753FE00210820FFF74FFE94E055
:100C30004E48844208D101211020FFF747FE0021D1
:100C40001020FFF743FE88E04948844208D1012183
:100C50002020FFF73BFE00212020FFF737FE7CE03D
:100C60004448844208D101214014FFF74FFE00217F
:100C70006014FFF74BFE70E03F48844209D1012128
:100C8000C804FFF743FE00214FF40020FFF73EFEAB
:100C900063E03A48844209D101210805FFF736FE96
:100CA00000214FF48010FFF731FE56E034488442B3
:100CB00009D101214805FFF729FE00214FF400105A
:100CC000FFF724FE49E02F48844208D1012140204B
:100CD000FFF7FCFD00214020FFF7F8FD3DE02A482A
:100CE000844208D101218020FFF7F0FD00218020FF
:100CF000FFF7ECFD31E02548844208D10121801541
:100D0000FFF7E4FD0021A015FFF7E0FD25E02048F6
:100D1000844209D101210804FFF7F8FD00214FF4B6
:100D20008030FFF7F3FD18E01A48844209D1012111
:100D30004804FFF7EBFD00214FF40030FFF7E6FD1C
:100D40000BE01548844208D101218804FFF7DEFD3D
:100D500000214FF48020FFF7D9FD10BD002C014089
:100D60000004004000080040000C0040001000405B
:100D70000014004000340140004C0140005001408C
:100D80000054014000180040001C004000200040BA
:100D900000400140004401400048014030B5024697
:100DA000002000230024158A05EA0103958905EA3D
:100DB000010413B10CB1012000E0002030BD1AB1D4
:100DC00083890B43838102E083898B43838170474E
:100DD00001894FF6F87211400181704770B5002407
:100DE00000220023058C4FF6FE7635400584028CE8
:100DF0008388048B4FF68F752C40B51E2C400D88D0
:100E00002C43751E2A400D892A434D882A43144DD0
:100E1000A8420BD0134DA84208D0134DA84205D0CC
:100E2000124DA84202D0124DA84213D14FF6F775C9
:100E30002A404D892A434FF6FB752A408D882A4364
:100E40004FF6FF652B404FF6FF552B408D892B4306
:100E5000CD892B4383800483CD888586028470BD31
:100E6000002C01400034014000400140004401409A
:100E70000048014070B5002400220023058C4FF685
:100E8000EF7635400584028C8388048B48F6FF7525
:100E90002C404FF6FF452C400D884FF6FF7606EAB2
:100EA00005252C434FF6DF752A400D8906EA051506
:100EB0002A434D8806EA05152A43154DA84202D05B
:100EC000144DA8421DD14FF67F752A404D894FF62B
:100ED000FF7606EA05152A434FF6BF752A408D882E
:100EE00006EA05152A434FF6FF352B404FF2FF75F2
:100EF0002B408D8906EA85052B43CD8906EA8505B9
:100F00002B4383800483CD880587028470BD000055
:100F1000002C01400034014070B500240022002361
:100F2000058C4FF6FF6635400584028C8388848BE0
:100F30004FF68F752C404FF6FC752C400D882C43D6
:100F40004FF6FF552A400D894FF6FF7606EA052534
:100F50002A434D8806EA05252A43154DA84202D0AA
:100F6000144DA8421DD14FF2FF752A404D894FF60E
:100F7000FF7606EA05252A434FF6FF352A408D887D
:100F800006EA05252A434EF6FF752B404DF6FF7500
:100F90002B408D8906EA05152B43CD8906EA0515F8
:100FA0002B4383808483CD888587028470BD0000B5
:100FB000002C0140003401400021018041808180EB
:100FC000C180018141818181C181704781867047E3
:100FD0000187704781877047002202881D4B984225
:100FE0000ED01D4B98420BD0B0F1804F08D01B4B58
:100FF000984205D01A4B984202D01A4B984204D11D
:101000004FF68F731A404B881A43174B984207D0FC
:10101000164B984204D04FF6FF431A40CB881A4330
:1010200002808B8883850B8803850A4B98420BD0FE
:10103000094B984208D00E4B984205D00D4B984270
:1010400002D00D4B984201D10B7A03860123838293
:1010500070470000002C01400034014000040040B3
:1010600000080040000C0040001000400014004048
:101070000040014000440140004801404FF6FF712C
:10108000818000210180C18041800172704700BFD2
:10109000FEE7000013B582B004461948047000F062
:1010A0003BF800211748FFF778FD0020164908801B
:1010B000164908801248007818B1114800780128B4
:1010C00007D11348BDF80C1001809DF80E108170F7
:1010D0000BE000231A46194601A800F003FA0C4958
:1010E00002880A808078887000BF0A48BDF80C101A
:1010F00001809DF80E10817000F028F81FBD0000DF
:101100000C00002000080040A6010020A8010020DB
:10111000A0010020A301002070B501210820FFF7E5
:10112000E5FB042000F0E8F9044600202060254695
:101130001820E8704FF4E07028800320A87029463A
:101140000148FFF7DFFA70BD000C01402DE9FE4FAA
:1011500001210420FFF7AAFB6548FFF72BFD644837
:10116000FFF736FE0A2000F0C7F907460020386076
:1011700078603881B8464046FFF780FF0020A8F825
:10118000020041F61F40A8F800006320A8F8040000
:1011900041465748FFF720FF102000F0ADF9044604
:1011A0001021FFF775F825462846FFF705FF602058
:1011B000288000202881012068800020E8802946BE
:1011C0004B48FFF70BFE29464948FFF753FE2946D7
:1011D0004748FFF7A1FE47480078002862D1002267
:1011E00001214348FFF7EBFD042000F085F9064696
:1011F00000203060B1461E2089F80000022089F8E6
:101200000100012089F80200002089F80300484607
:10121000FFF708FB384802903849087800F0DEFCF8
:10122000009037480168009800F0ECFC8346029972
:1012300000F0E8FC019000F09DFC1FFA80FA514696
:101240002B48FFF7C3FE2D49487800F0C7FC0090FB
:101250002C480168009800F0D5FC8346029900F004
:10126000D1FC019000F086FC1FFA80FA514620481C
:10127000FFF7AEFE2149887800F0B0FC00902248CC
:101280000168009800F0BEFC0190029900F0BAFCE1
:10129000834600F06FFC1FFA80FA51461448FFF7AE
:1012A00099FE1EE0012211461148FFF788FD4FF418
:1012B000A060FFF7EFFA042000F01EF906460020B8
:1012C0003060B1461E2089F80000022089F8010034
:1012D000012089F8020089F803004846FFF7A2FAC6
:1012E00000BF01210248FFF758FCBDE8FE8F000057
:1012F000000800400C0000200000C83EA0010020B3
:101300000000002004000020080000202DE9F04724
:1013100000245BE02F4EC4F1640085B22E490978A9
:1013200069432E4A127804FB021000F03FFC81460C
:1013300031462B48006800F065FC8246494600F0C3
:1013400061FC8046274900F053FB074600F012FC81
:10135000254921F814002049497869431F4A5278E9
:1013600004FB021000F022FC814631461F48006851
:1013700000F048FC8246494600F044FC804619498A
:1013800000F036FB074600F0F5FB194921F8140080
:10139000114989786943114A927804FB021000F0E0
:1013A00005FC814631461348006800F02BFC82465C
:1013B000494600F027FC80460A4900F019FB074621
:1013C00000F0D8FB0C4921F81400641C642CA1DB4C
:1013D000BDE8F0870000C83EA0010020A301002066
:1013E000000000200000C842C201002004000020CC
:1013F0008A020020080000205203002010B500F0EF
:1014000001F810BD0CB50020019000903348006831
:1014100040F480303149086000BF3048006800F473
:10142000003000900198401C0190009818B9019874
:10143000B0F5A06FF1D12948006800F4003010B178
:101440000120009001E0002000900098012843D185
:101450002348006840F010002149086008460068F1
:1014600020F0030008600846006840F002000860B1
:101470001A4840681949486008464068486008466C
:10148000406840F4806048600846406820F47C1062
:1014900048600846406840F4E81048600846006824
:1014A00040F08070086000BF0C48006800F00070D9
:1014B0000028F9D00948406820F003000749486037
:1014C0000846406840F00200486000BF034840689A
:1014D00000F00C000828F9D10CBD000000100240FB
:1014E0000020024010B50024047044708470017024
:1014F0004270837010BD000010B5040007D10124B4
:1015000005E0FEF7FDFE006800B90448804720466C
:10151000FEF7FAFE0028F4D010BD0000B503000865
:1015200010B500231A46FF211C48FFF7DBFF80237C
:10153000002211461948C01CFFF7D4FF0023802267
:1015400019461648801DFFF7CDFF0023FF221146E4
:1015500012480930FFF7C6FFFF23662233210F48E8
:101560000C30FFF7BFFFCC23FF2219460B480F308A
:10157000FFF7B8FFFF231A46194608481230FFF755
:10158000B1FF00231A4619460548FFF7ABFF0023B9
:101590001A4619460348FFF7A5FF10BDAC0100200D
:1015A000A0010020A30100201CB501A8FF210022FA
:1015B0001346002505704570857001704270837078
:1015C00000BF04460088ADF80000A0788DF8020046
:1015D00003200099FFF75EFD00BFFEE721F0004207
:1015E000A2F16052B2F5801F01F0004328BFD2F192
:1015F0007F6C0BD95FEA001C43EAC20242EB5070D9
:1016000018BF704728BF20F001007047B2F5801F57
:10161000BCBF184670474FEA410C1CF5001F02D2B0
:10162000084600F0B6BB70B500F062F90000008912
:10163000FFF7F6BF4FF00040A0F5800070470000B4
:101640002DE9C04130B4DFF8A0C23CEA111418BF44
:101650003CEA131400F0EC8081EA03051CEA111443
:1016600044EAD57418BF1CEA131500F0C780A4EB38
:1016700005044FF0004545EAC12145EAC32341EA8C
:10168000505143EA525304F17F74994204F50034F7
:101690004FEAC0204FEAC22208BF904200F09C806F
:1016A0004FEA13650FF24016765D4FEA134506FBCD
:1016B00005F7C7F1807706FB07F74FEAD737A7FB97
:1016C00003687642C8F58038A7FB06CE38BFA8F17C
:1016D000010807FB08E64FF0000EA6FB028CE6FBB4
:1016E00003CEDCF1000CCEF1004E38BFAEF1010E9E
:1016F000A6FB0C584FF000074FF00005E6FB0E87E5
:10170000A1FB08C6A0FB07CE16EB0E0645F10005AF
:10171000E1FB076515F1E04E7EBFA4F580345FEA7A
:1017200046066D4116F1800745F100054FEA17277F
:101730004FEA066647EA0567A6F1DE46B6F1805F26
:101740004FEA15251FD9384624F0010C05EBC4716A
:10175000BCF1FE6F01EB0C1102D8F0BCBDE80081BA
:1017600024425CBF01F5801E9EEAC47F02D4F0BC17
:10177000BDE80081244238D4F0BCA1F1C041BDE8ED
:10178000004100F003B94FEAD22242EA43524FEA45
:10179000D323A7FB02864FEAD02040EA415007FB43
:1017A00003661EEA0E0F4FEAD12105FB026658BF01
:1017B000A6EB0056B6EB00564FEA520E4EEAC37E39
:1017C00018EB0E0E56EB530EBDD518EB02085E411A
:1017D0007F1C55F10005B6E74FF480154FF0000768
:1017E0004FF000064FF00008ADE7F0BC4FF00000EE
:1017F00001F1C04101F00041BDE8008111EA0C1F78
:101800000CEA131500D00CE013EA0C1F00F0258041
:101810004FF00000F0BC81EA030101F00041BDE897
:101820000081F0BCBDE8004181EA030100F0AEB8E0
:10183000F0BCBDE8004170B500F05AF8097EFC3EEE
:1018400000F007B881EA03014FF0000001F0004109
:10185000704781EA030100F099B8F0BCBDE800418F
:101860004FF0000021497047FFFDFBF9F7F5F4F256
:10187000F0EEEDEBE9E8E6E4E3E1E0DEDDDBDAD82B
:10188000D7D5D4D3D1D0CFCDCCCBCAC8C7C6C5C489
:10189000C2C1C0BFBEBDBCBBBAB9B8B7B6B5B4B3A0
:1018A000B2B1B0AFAEADACABAAA9A8A8A7A6A5A48B
:1018B000A3A3A2A1A09F9F9E9D9C9C9B9A9999984F
:1018C0009797969595949393929191908F8F8E8EF2
:1018D0008D8C8C8B8B8A898988888787868585847F
:1018E00084838382828181800000FF070000F87F6B
:1018F0000EF1020E2EF0030E5EF8046B364205D494
:10190000012A43EB030515F5001F12D8012841EB0E
:10191000010C1CF5001F0CD80ED14FEAD17C15F537
:10192000001F0CEB4C0C0CF1020C08BF4CEBD37CF1
:1019300004E04FF0080C01E04FEAD37C0CEB4C05BF
:1019400026FA05F606F00706B6F1040C06D20EEBF1
:10195000860CBDE870404CF0010C6047DFE80CF0ED
:10196000090B02024FF000414FF00000A1F50021E9
:1019700070BD19461046012851EB010418BFD4F57B
:10198000001484BF002001F0004170BD0808A0F5DC
:1019900000114FEA3101704743004FEAD30C4FEA80
:1019A0003C0C43401FBF40070CF1605113F0FE4F49
:1019B00070471CF0006F03D100200CF0004170470D
:1019C0000CF0004343EA507010B540EACC0000F040
:1019D0009AF900BF000000924FEA0001FFF7D6BF5E
:1019E0004FF000414FF00000A1F5002170470000CA
:1019F0004FF47F0C1CEAD0121EBF1CEAD11392EAEE
:101A00000C0F93EA0C0F00F0858090EA010F48BF9D
:101A100042F4807240F4000C41F400002CF07F414D
:101A200020F07F4000B58142A2EB03020FF2081CB8
:101A3000ACEB504EC0F100009EF800E04FEA4E0EB5
:101A400000FB0EFC38BF49004FEA2C1C02F5FA02DD
:101A50000CFB0EF34FEACE1E4FEA112C4FEAC121C8
:101A60000EEB635E42EB22420EFB0CFC4FEA1C5372
:101A700000FB03114FEA112C4FEA01310EFB0CFC65
:101A80004FEADC4C00FB0C11C14228BF09184CEB9B
:101A900003335DF804EB10EB410143EBC250B2F5A8
:101AA0007C0F38BF704729D512F0F00F1CBF00F132
:101AB000C04000F0004070470081828384858687A3
:101AC00088898B8C8D8E8F919293959697999A9CFD
:101AD0009D9FA0A2A3A5A7A8AAACAEB0B2B3B5B76C
:101AE000B9BCBEC0C2C5C7C9CCCED1D4D7D9DCDF42
:101AF000E2E6E9ECF0F3F7FAFE0000004FEA400CF2
:101B00000CF1807CBCF17E4F28BF7047B0F1C04023
:101B100000F03FB990EA010F0CEAD11348BF42F43C
:101B20008072624538BF634507D213F47F0F16D029
:101B300080EA010000F00040704710B500F0E3F8C3
:101B4000097EFC3E00F005B880EA010000F000408C
:101B5000704780EA010000F0004000F01AB912F46A
:101B60007F0F04BF0248704780EA010000F011B9FE
:101B70000000C07F41000B0ED3F19E0208D950F443
:101B800000034FEA032323FA02F048BF40427047A4
:101B900010B500F0B8F800BF4992248000207047CB
:101BA0006FF0004282EA20007047000010F0004110
:101BB00048BF4042B0FA80F310FA03F2C3F19D032C
:101BC0000BD051EAC35101EB1220530638BF7047C6
:101BD00000F1010008BF20F001007047B0FA80F367
:101BE00010FA03F2C3F19D030AD0D90501EB1220CC
:101BF000530638BF704700F1010008BF20F0010014
:101C0000704700004FF47F0C1CEAD0121EBF1CEA84
:101C1000D11392EA0C0F93EA0C0F00F0478090EA80
:101C2000010F48BF42F480724FF0004C4CEA002094
:101C30004CEA012102EB0302A0FB0113A2F5000212
:101C4000002918BF43F001035B0028BF4FEA3303AC
:101C500042EB22425FEA132C4CEBC2502EBFBCEB8E
:101C6000436FB2F57C0F70474FEA036CBCF1004F35
:101C700008BF20F00100B2F57C0F38BF70470BD5CC
:101C800082F0FF0212F5803FC8BF704700F1C040EC
:101C9000D8BF00F00040704700F5000C5FEA4C0C24
:101CA00048BF7047B0F1C04000F073B890EA010F30
:101CB0000CEAD11348BF42F48072624538BF6345D5
:101CC00004D280EA010000F00040704710B500F037
:101CD0001AF800BF8900013E00F007B800F009B80B
:101CE0005FEA410C5FEA1C6C08D080EA010000F05A
:101CF00050B85FEA400C5FEA1C6CF6D14FF0004030
:101D0000A0F5800070470EF1020E2EF0030E5EF873
:101D1000044B244204D44FEA4102B2F17F4F11D860
:101D20004FEA4003B3F17F4F0CD80ED14FEAD07C7D
:101D3000B2F17F4F0CEB4C0C0CF1020C08BF4CEBDA
:101D4000D17C04E04FF0080C01E04FEAD17C0CEBB1
:101D50004C0324FA03F404F00704B4F1040C06D293
:101D60000EEB840CBDE810404CF0010C6047DFE83E
:101D70000CF0070802024FF00040A0F5800010BDF3
:101D80000846420018BFD2F1807288BF00F00040C0
:101D900010BDFF2141EAD050C0057047C01D0008AA
:101DA00000000020AC01000028010008F01E00081F
:101DB000AC010020B40900008C01000865F7FFFFAA
:101DC00070050000003F043307000110090AD72303
:101DD0003C8FC2F53C0810153DCDCC4C3D8FC275F3
:101DE0003D295C8F3D0AD7A33DEC51B81432CC0499
:101DF000112410163DB81E053E295C0F3E9A991914
:101E00003E7B142E3EEC51383E3410063EAE476108
:101E10003E3810123EB81E853EE17A943EC3F5A8C6
:101E20003EA470BD3E4510053ED7A3F01810330503
:101E30003F85EB113FF6281C3FC3F5283F33333372
:101E40003F48E13A3FB81E453F295C4F3F3D0A57A6
:101E50003F52B85E3F6666663F1F856B3FD7A370F3
:101E60003F5010053FEC517828327A047004A4707A
:101E70007D0400041F0000800461306140214C217A
:101E800054215C10047B146E881006683F0AD763E7
:101E900094325C802188219021981004D7A3308C43
:101EA00013263FE834053FCDCC0C301008AE47E197
:101EB0003E14AEC7F832AEE411A811E03406573E26
:101EC0005C8F420C1540351C2524252C1130353CE7
:101ED0002544254C2554255C21042568257025744E
:101EE000457C26A380733C00010300010000000034
:04000005080000ED02
:00000001FF
